{"abi":[{"type":"constructor","inputs":[{"name":"name_","type":"string","internalType":"string"},{"name":"symbol_","type":"string","internalType":"string"},{"name":"decimals_","type":"uint8","internalType":"uint8"}],"stateMutability":"nonpayable"},{"type":"function","name":"allowance","inputs":[{"name":"","type":"address","internalType":"address"},{"name":"","type":"address","internalType":"address"}],"outputs":[{"name":"","type":"uint256","internalType":"uint256"}],"stateMutability":"view"},{"type":"function","name":"approve","inputs":[{"name":"spender","type":"address","internalType":"address"},{"name":"amount","type":"uint256","internalType":"uint256"}],"outputs":[{"name":"","type":"bool","internalType":"bool"}],"stateMutability":"nonpayable"},{"type":"function","name":"balanceOf","inputs":[{"name":"","type":"address","internalType":"address"}],"outputs":[{"name":"","type":"uint256","internalType":"uint256"}],"stateMutability":"view"},{"type":"function","name":"burn","inputs":[{"name":"","type":"uint256","internalType":"uint256"}],"outputs":[{"name":"","type":"bool","internalType":"bool"}],"stateMutability":"pure"},{"type":"function","name":"burnFrom","inputs":[{"name":"","type":"address","internalType":"address"},{"name":"","type":"uint256","internalType":"uint256"}],"outputs":[{"name":"","type":"bool","internalType":"bool"}],"stateMutability":"pure"},{"type":"function","name":"burnFromByFactory","inputs":[{"name":"from","type":"address","internalType":"address"},{"name":"amount","type":"uint256","internalType":"uint256"}],"outputs":[{"name":"","type":"bool","internalType":"bool"}],"stateMutability":"nonpayable"},{"type":"function","name":"decimals","inputs":[],"outputs":[{"name":"","type":"uint8","internalType":"uint8"}],"stateMutability":"view"},{"type":"function","name":"factory","inputs":[],"outputs":[{"name":"","type":"address","internalType":"address"}],"stateMutability":"view"},{"type":"function","name":"mint","inputs":[{"name":"to","type":"address","internalType":"address"},{"name":"amount","type":"uint256","internalType":"uint256"}],"outputs":[],"stateMutability":"nonpayable"},{"type":"function","name":"name","inputs":[],"outputs":[{"name":"","type":"string","internalType":"string"}],"stateMutability":"view"},{"type":"function","name":"symbol","inputs":[],"outputs":[{"name":"","type":"string","internalType":"string"}],"stateMutability":"view"},{"type":"function","name":"totalSupply","inputs":[],"outputs":[{"name":"","type":"uint256","internalType":"uint256"}],"stateMutability":"view"},{"type":"function","name":"transfer","inputs":[{"name":"to","type":"address","internalType":"address"},{"name":"amount","type":"uint256","internalType":"uint256"}],"outputs":[{"name":"","type":"bool","internalType":"bool"}],"stateMutability":"nonpayable"},{"type":"function","name":"transferFrom","inputs":[{"name":"from","type":"address","internalType":"address"},{"name":"to","type":"address","internalType":"address"},{"name":"amount","type":"uint256","internalType":"uint256"}],"outputs":[{"name":"","type":"bool","internalType":"bool"}],"stateMutability":"nonpayable"},{"type":"event","name":"Approval","inputs":[{"name":"owner","type":"address","indexed":true,"internalType":"address"},{"name":"spender","type":"address","indexed":true,"internalType":"address"},{"name":"value","type":"uint256","indexed":false,"internalType":"uint256"}],"anonymous":false},{"type":"event","name":"Transfer","inputs":[{"name":"from","type":"address","indexed":true,"internalType":"address"},{"name":"to","type":"address","indexed":true,"internalType":"address"},{"name":"value","type":"uint256","indexed":false,"internalType":"uint256"}],"anonymous":false}],"bytecode":{"object":"0x60c060405234801562000010575f80fd5b5060405162000ea538038062000ea5833981016040819052620000339162000120565b5f6200004084826200022b565b5060016200004f83826200022b565b5060ff1660805250503360a052620002f3565b634e487b7160e01b5f52604160045260245ffd5b5f82601f83011262000086575f80fd5b81516001600160401b0380821115620000a357620000a362000062565b604051601f8301601f19908116603f01168101908282118183101715620000ce57620000ce62000062565b81604052838152602092508683858801011115620000ea575f80fd5b5f91505b838210156200010d5785820183015181830184015290820190620000ee565b5f93810190920192909252949350505050565b5f805f6060848603121562000133575f80fd5b83516001600160401b03808211156200014a575f80fd5b620001588783880162000076565b945060208601519150808211156200016e575f80fd5b506200017d8682870162000076565b925050604084015160ff8116811462000194575f80fd5b809150509250925092565b600181811c90821680620001b457607f821691505b602082108103620001d357634e487b7160e01b5f52602260045260245ffd5b50919050565b601f82111562000226575f81815260208120601f850160051c81016020861015620002015750805b601f850160051c820191505b8181101562000222578281556001016200020d565b5050505b505050565b81516001600160401b0381111562000247576200024762000062565b6200025f816200025884546200019f565b84620001d9565b602080601f83116001811462000295575f84156200027d5750858301515b5f19600386901b1c1916600185901b17855562000222565b5f85815260208120601f198616915b82811015620002c557888601518255948401946001909101908401620002a4565b5085821015620002e357878501515f19600388901b60f8161c191681555b5050505050600190811b01905550565b60805160a051610b82620003235f395f81816102150152818161037c01526105d901525f61016c0152610b825ff3fe608060405234801561000f575f80fd5b50600436106100e5575f3560e01c806342966c681161008857806395d89b411161006357806395d89b41146101f5578063a9059cbb146101fd578063c45a015514610210578063dd62ed3e1461024f575f80fd5b806342966c68146101b557806370a08231146101c857806379cc6790146101e7575f80fd5b806319287061116100c3578063192870611461014157806323b872dd14610154578063313ce5671461016757806340c10f19146101a0575f80fd5b806306fdde03146100e9578063095ea7b31461010757806318160ddd1461012a575b5f80fd5b6100f1610279565b6040516100fe91906109ab565b60405180910390f35b61011a610115366004610a11565b610304565b60405190151581526020016100fe565b61013360025481565b6040519081526020016100fe565b61011a61014f366004610a11565b610370565b61011a610162366004610a39565b6104d9565b61018e7f000000000000000000000000000000000000000000000000000000000000000081565b60405160ff90911681526020016100fe565b6101b36101ae366004610a11565b6105ce565b005b61011a6101c3366004610a72565b610709565b6101336101d6366004610a89565b60036020525f908152604090205481565b61011a6101c3366004610a11565b6100f161074a565b61011a61020b366004610a11565b610757565b6102377f000000000000000000000000000000000000000000000000000000000000000081565b6040516001600160a01b0390911681526020016100fe565b61013361025d366004610aa9565b600460209081525f928352604080842090915290825290205481565b5f805461028590610ada565b80601f01602080910402602001604051908101604052809291908181526020018280546102b190610ada565b80156102fc5780601f106102d3576101008083540402835291602001916102fc565b820191905f5260205f20905b8154815290600101906020018083116102df57829003601f168201915b505050505081565b335f8181526004602090815260408083206001600160a01b038716808552925280832085905551919290917f8c5be1e5ebec7d5bd14f71427d1e84f3dd0314c0f7b2291e5b200ac8c7c3b9259061035e9086815260200190565b60405180910390a35060015b92915050565b5f336001600160a01b037f000000000000000000000000000000000000000000000000000000000000000016146103e65760405162461bcd60e51b8152602060048201526015602482015274185d5d1a0b999858dd1bdc9e57dc995c5d5a5c9959605a1b60448201526064015b60405180910390fd5b6001600160a01b0383165f9081526004602090815260408083203384529091529020545f1981146104c557828110156104615760405162461bcd60e51b815260206004820152601c60248201527f65726332302e696e73756666696369656e745f616c6c6f77616e63650000000060448201526064016103dd565b61046b8382610b26565b6001600160a01b0385165f81815260046020908152604080832033808552908352928190208590555193845290927f8c5be1e5ebec7d5bd14f71427d1e84f3dd0314c0f7b2291e5b200ac8c7c3b925910160405180910390a35b6104cf848461076c565b5060019392505050565b6001600160a01b0383165f9081526004602090815260408083203384529091528120545f1981146105b857828110156105545760405162461bcd60e51b815260206004820152601c60248201527f65726332302e696e73756666696369656e745f616c6c6f77616e63650000000060448201526064016103dd565b61055e8382610b26565b6001600160a01b0386165f81815260046020908152604080832033808552908352928190208590555193845290927f8c5be1e5ebec7d5bd14f71427d1e84f3dd0314c0f7b2291e5b200ac8c7c3b925910160405180910390a35b6105c3858585610854565b506001949350505050565b336001600160a01b037f0000000000000000000000000000000000000000000000000000000000000000161461063e5760405162461bcd60e51b8152602060048201526015602482015274185d5d1a0b999858dd1bdc9e57dc995c5d5a5c9959605a1b60448201526064016103dd565b6001600160a01b0382166106825760405162461bcd60e51b815260206004820152600b60248201526a6172672e746f5f7a65726f60a81b60448201526064016103dd565b8060025f8282546106939190610b39565b90915550506001600160a01b0382165f90815260036020526040812080548392906106bf908490610b39565b90915550506040518181526001600160a01b038316905f907fddf252ad1be2c89b69c2b068fc378daa952ba7f163c4a11628f55a4df523b3ef906020015b60405180910390a35050565b60405162461bcd60e51b815260206004820152601460248201527364697361626c65642e7573655f666163746f727960601b60448201525f906064016103dd565b6001805461028590610ada565b5f610763338484610854565b50600192915050565b6001600160a01b0382165f908152600360205260409020548111156107d35760405162461bcd60e51b815260206004820152601a60248201527f65726332302e696e73756666696369656e745f62616c616e636500000000000060448201526064016103dd565b6001600160a01b0382165f90815260036020526040812080548392906107fa908490610b26565b925050819055508060025f8282546108129190610b26565b90915550506040518181525f906001600160a01b038416907fddf252ad1be2c89b69c2b068fc378daa952ba7f163c4a11628f55a4df523b3ef906020016106fd565b6001600160a01b0382166108985760405162461bcd60e51b815260206004820152600b60248201526a6172672e746f5f7a65726f60a81b60448201526064016103dd565b6001600160a01b0383165f908152600360205260409020548111156108ff5760405162461bcd60e51b815260206004820152601a60248201527f65726332302e696e73756666696369656e745f62616c616e636500000000000060448201526064016103dd565b6001600160a01b0383165f9081526003602052604081208054839290610926908490610b26565b90915550506001600160a01b0382165f9081526003602052604081208054839290610952908490610b39565b92505081905550816001600160a01b0316836001600160a01b03167fddf252ad1be2c89b69c2b068fc378daa952ba7f163c4a11628f55a4df523b3ef8360405161099e91815260200190565b60405180910390a3505050565b5f6020808352835180828501525f5b818110156109d6578581018301518582016040015282016109ba565b505f604082860101526040601f19601f8301168501019250505092915050565b80356001600160a01b0381168114610a0c575f80fd5b919050565b5f8060408385031215610a22575f80fd5b610a2b836109f6565b946020939093013593505050565b5f805f60608486031215610a4b575f80fd5b610a54846109f6565b9250610a62602085016109f6565b9150604084013590509250925092565b5f60208284031215610a82575f80fd5b5035919050565b5f60208284031215610a99575f80fd5b610aa2826109f6565b9392505050565b5f8060408385031215610aba575f80fd5b610ac3836109f6565b9150610ad1602084016109f6565b90509250929050565b600181811c90821680610aee57607f821691505b602082108103610b0c57634e487b7160e01b5f52602260045260245ffd5b50919050565b634e487b7160e01b5f52601160045260245ffd5b8181038181111561036a5761036a610b12565b8082018082111561036a5761036a610b1256fea26469706673582212207d28d74bb0c5f0f83e5ef87fe1c54000a9ec6595711738a05da3ae5c88758b2f64736f6c63430008140033","linkReferences":{}},"methodIdentifiers":{"allowance(address,address)":"dd62ed3e","approve(address,uint256)":"095ea7b3","balanceOf(address)":"70a08231","burn(uint256)":"42966c68","burnFrom(address,uint256)":"79cc6790","burnFromByFactory(address,uint256)":"19287061","decimals()":"313ce567","factory()":"c45a0155","mint(address,uint256)":"40c10f19","name()":"06fdde03","symbol()":"95d89b41","totalSupply()":"18160ddd","transfer(address,uint256)":"a9059cbb","transferFrom(address,address,uint256)":"23b872dd"},"id":1}