{"abi":[{"type":"constructor","inputs":[{"name":"minter_","type":"address","internalType":"address"}],"stateMutability":"nonpayable"},{"type":"function","name":"burnFromAsset","inputs":[{"name":"canisterId","type":"bytes","internalType":"bytes"},{"name":"from","type":"address","internalType":"address"},{"name":"amount","type":"uint256","internalType":"uint256"}],"outputs":[{"name":"token","type":"address","internalType":"address"}],"stateMutability":"nonpayable"},{"type":"function","name":"computeAssetKey","inputs":[{"name":"canisterId","type":"bytes","internalType":"bytes"}],"outputs":[{"name":"","type":"bytes32","internalType":"bytes32"}],"stateMutability":"view"},{"type":"function","name":"computeSalt","inputs":[{"name":"canisterId","type":"bytes","internalType":"bytes"}],"outputs":[{"name":"","type":"bytes32","internalType":"bytes32"}],"stateMutability":"view"},{"type":"function","name":"decimalsByAssetKey","inputs":[{"name":"","type":"bytes32","internalType":"bytes32"}],"outputs":[{"name":"","type":"uint8","internalType":"uint8"}],"stateMutability":"view"},{"type":"function","name":"getTokenAddress","inputs":[{"name":"canisterId","type":"bytes","internalType":"bytes"}],"outputs":[{"name":"","type":"address","internalType":"address"}],"stateMutability":"view"},{"type":"function","name":"mintForAsset","inputs":[{"name":"canisterId","type":"bytes","internalType":"bytes"},{"name":"decimals","type":"uint8","internalType":"uint8"},{"name":"to","type":"address","internalType":"address"},{"name":"amount","type":"uint256","internalType":"uint256"}],"outputs":[{"name":"token","type":"address","internalType":"address"}],"stateMutability":"nonpayable"},{"type":"function","name":"minter","inputs":[],"outputs":[{"name":"","type":"address","internalType":"address"}],"stateMutability":"view"},{"type":"function","name":"predictTokenAddress","inputs":[{"name":"canisterId","type":"bytes","internalType":"bytes"},{"name":"decimals","type":"uint8","internalType":"uint8"}],"outputs":[{"name":"predicted","type":"address","internalType":"address"}],"stateMutability":"view"},{"type":"function","name":"tokenByAssetKey","inputs":[{"name":"","type":"bytes32","internalType":"bytes32"}],"outputs":[{"name":"","type":"address","internalType":"address"}],"stateMutability":"view"},{"type":"event","name":"Burned","inputs":[{"name":"canisterId","type":"bytes","indexed":false,"internalType":"bytes"},{"name":"assetKey","type":"bytes32","indexed":true,"internalType":"bytes32"},{"name":"token","type":"address","indexed":true,"internalType":"address"},{"name":"from","type":"address","indexed":false,"internalType":"address"},{"name":"amount","type":"uint256","indexed":false,"internalType":"uint256"}],"anonymous":false},{"type":"event","name":"Minted","inputs":[{"name":"canisterId","type":"bytes","indexed":false,"internalType":"bytes"},{"name":"assetKey","type":"bytes32","indexed":true,"internalType":"bytes32"},{"name":"token","type":"address","indexed":true,"internalType":"address"},{"name":"to","type":"address","indexed":false,"internalType":"address"},{"name":"amount","type":"uint256","indexed":false,"internalType":"uint256"}],"anonymous":false},{"type":"event","name":"TokenDeployed","inputs":[{"name":"canisterId","type":"bytes","indexed":false,"internalType":"bytes"},{"name":"assetKey","type":"bytes32","indexed":true,"internalType":"bytes32"},{"name":"token","type":"address","indexed":true,"internalType":"address"},{"name":"salt","type":"bytes32","indexed":false,"internalType":"bytes32"}],"anonymous":false}],"bytecode":{"object":"0x60a060405234801561000f575f80fd5b50604051611e97380380611e9783398101604081905261002e9161008b565b6001600160a01b03811661007a5760405162461bcd60e51b815260206004820152600f60248201526e6172672e6d696e7465725f7a65726f60881b604482015260640160405180910390fd5b6001600160a01b03166080526100b8565b5f6020828403121561009b575f80fd5b81516001600160a01b03811681146100b1575f80fd5b9392505050565b608051611dba6100dd5f395f818160a6015281816101ed01526105fa0152611dba5ff3fe608060405234801562000010575f80fd5b50600436106200009c575f3560e01c8063be457ec7116200006b578063be457ec7146200013e578063c97c32c41462000164578063cbba7052146200017b578063d14444c614620001b3578063e9b1230314620001ca575f80fd5b80630754617214620000a0578063086302c214620000e5578063397b057114620000fc578063aa3801d81462000127575b5f80fd5b620000c87f000000000000000000000000000000000000000000000000000000000000000081565b6040516001600160a01b0390911681526020015b60405180910390f35b620000c8620000f636600462000acf565b620001e1565b620000c86200010d36600462000b3f565b5f602081905290815260409020546001600160a01b031681565b620000c86200013836600462000b57565b620004d0565b620001556200014f36600462000b57565b62000501565b604051908152602001620000dc565b620000c86200017536600462000b9a565b6200056b565b620001a06200018c36600462000b3f565b60016020525f908152604090205460ff1681565b60405160ff9091168152602001620000dc565b620000c8620001c436600462000bf0565b620005ee565b62000155620001db36600462000b57565b6200079e565b5f336001600160a01b037f00000000000000000000000000000000000000000000000000000000000000001614620002575760405162461bcd60e51b8152602060048201526014602482015273185d5d1a0b9b5a5b9d195c97dc995c5d5a5c995960621b60448201526064015b60405180910390fd5b6001600160a01b0383166200029d5760405162461bcd60e51b815260206004820152600b60248201526a6172672e746f5f7a65726f60a81b60448201526064016200024e565b5f620002aa878762000501565b5f818152602081905260409020546001600160a01b03169250905081620003b9575f620002d888886200079e565b905080620002e78989620007b2565b620002f38a8a620007e9565b88604051620003029062000a4c565b620003109392919062000c9f565b8190604051809103905ff59050801580156200032e573d5f803e3d5ffd5b505f8381526020818152604080832080546001600160a01b0319166001600160a01b038616908117909155600190925291829020805460ff191660ff8b1617905590519194509083907fa94bf39da4a70c2c017b2fba2d3561ad61058131dac439f7f640072a9f1f3e9d90620003aa908c908c90879062000d03565b60405180910390a3506200041d565b5f8181526001602052604090205460ff8681169116146200041d5760405162461bcd60e51b815260206004820152601b60248201527f6172672e61737365745f646563696d616c735f6d69736d61746368000000000060448201526064016200024e565b6040516340c10f1960e01b81526001600160a01b038581166004830152602482018590528316906340c10f19906044015f604051808303815f87803b15801562000465575f80fd5b505af115801562000478573d5f803e3d5ffd5b50505050816001600160a01b0316817fc24c0b635304dd6d5692e0452892191032dd98f7af780e92e277fcd453a50aa089898888604051620004be949392919062000d28565b60405180910390a35095945050505050565b5f805f620004df858562000501565b815260208101919091526040015f20546001600160a01b031690505b92915050565b5f6200050e838362000809565b6040518060400160405280600e81526020016d6b6173616e652e777261702e763160901b8152504684846040516020016200054d949392919062000d59565b60405160208183030381529060405280519060200120905092915050565b5f806200057985856200079e565b90505f620005898686866200086c565b8051602091820120604080516001600160f81b0319818501523060601b6bffffffffffffffffffffffff191660218201526035810195909552605580860192909252805180860390920182526075909401909352825192019190912095945050505050565b5f336001600160a01b037f00000000000000000000000000000000000000000000000000000000000000001614620006605760405162461bcd60e51b8152602060048201526014602482015273185d5d1a0b9b5a5b9d195c97dc995c5d5a5c995960621b60448201526064016200024e565b5f6200066d868662000501565b5f818152602081905260409020546001600160a01b03169250905081620006d75760405162461bcd60e51b815260206004820152601960248201527f756e777261702e746f6b656e5f6e6f745f6465706c6f7965640000000000000060448201526064016200024e565b604051631928706160e01b81526001600160a01b038581166004830152602482018590528316906319287061906044016020604051808303815f875af115801562000724573d5f803e3d5ffd5b505050506040513d601f19601f820116820180604052508101906200074a919062000d8b565b50816001600160a01b0316817f4a682b31acec5ddb2ad48221befd9bbca18586865da154421ea7c72e27473d80888888886040516200078d949392919062000d28565b60405180910390a350949350505050565b5f620007ab838362000501565b9392505050565b6060620007c08383620008f8565b604051602001620007d2919062000dac565b604051602081830303815290604052905092915050565b6060620007f78383620008f8565b604051602001620007d2919062000de4565b80158015906200081a5750601d8111155b620008685760405162461bcd60e51b815260206004820152601760248201527f6172672e63616e69737465725f69645f696e76616c696400000000000000000060448201526064016200024e565b5050565b606060405180602001620008809062000a4c565b601f1982820381018352601f909101166040526200089f8585620007b2565b620008ab8686620007e9565b84604051602001620008c09392919062000c9f565b60408051601f1981840301815290829052620008e0929160200162000e0f565b60405160208183030381529060405290509392505050565b60605f83836040516200090d92919062000e41565b60408051918290038220601080845283830190925292505f91906020820181803683370190505090505f5b600881101562000a0a575f83826020811062000958576200095862000e50565b1a90506200096a600482901c62000a13565b836200097884600262000e78565b815181106200098b576200098b62000e50565b60200101906001600160f81b03191690815f1a905350620009af81600f1662000a13565b83620009bd84600262000e78565b620009ca90600162000e92565b81518110620009dd57620009dd62000e50565b60200101906001600160f81b03191690815f1a90535050808062000a019062000ea8565b91505062000938565b50949350505050565b5f600a8260ff161062000a365762000a2d82605762000ec3565b60f81b620004fb565b62000a4382603062000ec3565b60f81b92915050565b610ea58062000ee083390190565b5f8083601f84011262000a6b575f80fd5b50813567ffffffffffffffff81111562000a83575f80fd5b60208301915083602082850101111562000a9b575f80fd5b9250929050565b803560ff8116811462000ab3575f80fd5b919050565b80356001600160a01b038116811462000ab3575f80fd5b5f805f805f6080868803121562000ae4575f80fd5b853567ffffffffffffffff81111562000afb575f80fd5b62000b098882890162000a5a565b909650945062000b1e90506020870162000aa2565b925062000b2e6040870162000ab8565b949793965091946060013592915050565b5f6020828403121562000b50575f80fd5b5035919050565b5f806020838503121562000b69575f80fd5b823567ffffffffffffffff81111562000b80575f80fd5b62000b8e8582860162000a5a565b90969095509350505050565b5f805f6040848603121562000bad575f80fd5b833567ffffffffffffffff81111562000bc4575f80fd5b62000bd28682870162000a5a565b909450925062000be790506020850162000aa2565b90509250925092565b5f805f806060858703121562000c04575f80fd5b843567ffffffffffffffff81111562000c1b575f80fd5b62000c298782880162000a5a565b909550935062000c3e90506020860162000ab8565b9396929550929360400135925050565b5f5b8381101562000c6a57818101518382015260200162000c50565b50505f910152565b5f815180845262000c8b81602086016020860162000c4e565b601f01601f19169290920160200192915050565b606081525f62000cb3606083018662000c72565b828103602084015262000cc7818662000c72565b91505060ff83166040830152949350505050565b81835281816020850137505f828201602090810191909152601f909101601f19169091010190565b604081525f62000d1860408301858762000cdb565b9050826020830152949350505050565b606081525f62000d3d60608301868862000cdb565b6001600160a01b03949094166020830152506040015292915050565b5f855162000d6c818460208a0162000c4e565b8201858152838560208301375f93016020019283525090949350505050565b5f6020828403121562000d9c575f80fd5b81518015158114620007ab575f80fd5b6e025b0b9b0b732902bb930b83832b21608d1b81525f825162000dd781600f85016020870162000c4e565b91909101600f0192915050565b614b5760f01b81525f825162000e0281600285016020870162000c4e565b9190910160020192915050565b5f835162000e2281846020880162000c4e565b83519083019062000e3881836020880162000c4e565b01949350505050565b818382375f9101908152919050565b634e487b7160e01b5f52603260045260245ffd5b634e487b7160e01b5f52601160045260245ffd5b8082028115828204841417620004fb57620004fb62000e64565b80820180821115620004fb57620004fb62000e64565b5f6001820162000ebc5762000ebc62000e64565b5060010190565b60ff8181168382160190811115620004fb57620004fb62000e6456fe60c060405234801562000010575f80fd5b5060405162000ea538038062000ea5833981016040819052620000339162000120565b5f6200004084826200022b565b5060016200004f83826200022b565b5060ff1660805250503360a052620002f3565b634e487b7160e01b5f52604160045260245ffd5b5f82601f83011262000086575f80fd5b81516001600160401b0380821115620000a357620000a362000062565b604051601f8301601f19908116603f01168101908282118183101715620000ce57620000ce62000062565b81604052838152602092508683858801011115620000ea575f80fd5b5f91505b838210156200010d5785820183015181830184015290820190620000ee565b5f93810190920192909252949350505050565b5f805f6060848603121562000133575f80fd5b83516001600160401b03808211156200014a575f80fd5b620001588783880162000076565b945060208601519150808211156200016e575f80fd5b506200017d8682870162000076565b925050604084015160ff8116811462000194575f80fd5b809150509250925092565b600181811c90821680620001b457607f821691505b602082108103620001d357634e487b7160e01b5f52602260045260245ffd5b50919050565b601f82111562000226575f81815260208120601f850160051c81016020861015620002015750805b601f850160051c820191505b8181101562000222578281556001016200020d565b5050505b505050565b81516001600160401b0381111562000247576200024762000062565b6200025f816200025884546200019f565b84620001d9565b602080601f83116001811462000295575f84156200027d5750858301515b5f19600386901b1c1916600185901b17855562000222565b5f85815260208120601f198616915b82811015620002c557888601518255948401946001909101908401620002a4565b5085821015620002e357878501515f19600388901b60f8161c191681555b5050505050600190811b01905550565b60805160a051610b82620003235f395f81816102150152818161037c01526105d901525f61016c0152610b825ff3fe608060405234801561000f575f80fd5b50600436106100e5575f3560e01c806342966c681161008857806395d89b411161006357806395d89b41146101f5578063a9059cbb146101fd578063c45a015514610210578063dd62ed3e1461024f575f80fd5b806342966c68146101b557806370a08231146101c857806379cc6790146101e7575f80fd5b806319287061116100c3578063192870611461014157806323b872dd14610154578063313ce5671461016757806340c10f19146101a0575f80fd5b806306fdde03146100e9578063095ea7b31461010757806318160ddd1461012a575b5f80fd5b6100f1610279565b6040516100fe91906109ab565b60405180910390f35b61011a610115366004610a11565b610304565b60405190151581526020016100fe565b61013360025481565b6040519081526020016100fe565b61011a61014f366004610a11565b610370565b61011a610162366004610a39565b6104d9565b61018e7f000000000000000000000000000000000000000000000000000000000000000081565b60405160ff90911681526020016100fe565b6101b36101ae366004610a11565b6105ce565b005b61011a6101c3366004610a72565b610709565b6101336101d6366004610a89565b60036020525f908152604090205481565b61011a6101c3366004610a11565b6100f161074a565b61011a61020b366004610a11565b610757565b6102377f000000000000000000000000000000000000000000000000000000000000000081565b6040516001600160a01b0390911681526020016100fe565b61013361025d366004610aa9565b600460209081525f928352604080842090915290825290205481565b5f805461028590610ada565b80601f01602080910402602001604051908101604052809291908181526020018280546102b190610ada565b80156102fc5780601f106102d3576101008083540402835291602001916102fc565b820191905f5260205f20905b8154815290600101906020018083116102df57829003601f168201915b505050505081565b335f8181526004602090815260408083206001600160a01b038716808552925280832085905551919290917f8c5be1e5ebec7d5bd14f71427d1e84f3dd0314c0f7b2291e5b200ac8c7c3b9259061035e9086815260200190565b60405180910390a35060015b92915050565b5f336001600160a01b037f000000000000000000000000000000000000000000000000000000000000000016146103e65760405162461bcd60e51b8152602060048201526015602482015274185d5d1a0b999858dd1bdc9e57dc995c5d5a5c9959605a1b60448201526064015b60405180910390fd5b6001600160a01b0383165f9081526004602090815260408083203384529091529020545f1981146104c557828110156104615760405162461bcd60e51b815260206004820152601c60248201527f65726332302e696e73756666696369656e745f616c6c6f77616e63650000000060448201526064016103dd565b61046b8382610b26565b6001600160a01b0385165f81815260046020908152604080832033808552908352928190208590555193845290927f8c5be1e5ebec7d5bd14f71427d1e84f3dd0314c0f7b2291e5b200ac8c7c3b925910160405180910390a35b6104cf848461076c565b5060019392505050565b6001600160a01b0383165f9081526004602090815260408083203384529091528120545f1981146105b857828110156105545760405162461bcd60e51b815260206004820152601c60248201527f65726332302e696e73756666696369656e745f616c6c6f77616e63650000000060448201526064016103dd565b61055e8382610b26565b6001600160a01b0386165f81815260046020908152604080832033808552908352928190208590555193845290927f8c5be1e5ebec7d5bd14f71427d1e84f3dd0314c0f7b2291e5b200ac8c7c3b925910160405180910390a35b6105c3858585610854565b506001949350505050565b336001600160a01b037f0000000000000000000000000000000000000000000000000000000000000000161461063e5760405162461bcd60e51b8152602060048201526015602482015274185d5d1a0b999858dd1bdc9e57dc995c5d5a5c9959605a1b60448201526064016103dd565b6001600160a01b0382166106825760405162461bcd60e51b815260206004820152600b60248201526a6172672e746f5f7a65726f60a81b60448201526064016103dd565b8060025f8282546106939190610b39565b90915550506001600160a01b0382165f90815260036020526040812080548392906106bf908490610b39565b90915550506040518181526001600160a01b038316905f907fddf252ad1be2c89b69c2b068fc378daa952ba7f163c4a11628f55a4df523b3ef906020015b60405180910390a35050565b60405162461bcd60e51b815260206004820152601460248201527364697361626c65642e7573655f666163746f727960601b60448201525f906064016103dd565b6001805461028590610ada565b5f610763338484610854565b50600192915050565b6001600160a01b0382165f908152600360205260409020548111156107d35760405162461bcd60e51b815260206004820152601a60248201527f65726332302e696e73756666696369656e745f62616c616e636500000000000060448201526064016103dd565b6001600160a01b0382165f90815260036020526040812080548392906107fa908490610b26565b925050819055508060025f8282546108129190610b26565b90915550506040518181525f906001600160a01b038416907fddf252ad1be2c89b69c2b068fc378daa952ba7f163c4a11628f55a4df523b3ef906020016106fd565b6001600160a01b0382166108985760405162461bcd60e51b815260206004820152600b60248201526a6172672e746f5f7a65726f60a81b60448201526064016103dd565b6001600160a01b0383165f908152600360205260409020548111156108ff5760405162461bcd60e51b815260206004820152601a60248201527f65726332302e696e73756666696369656e745f62616c616e636500000000000060448201526064016103dd565b6001600160a01b0383165f9081526003602052604081208054839290610926908490610b26565b90915550506001600160a01b0382165f9081526003602052604081208054839290610952908490610b39565b92505081905550816001600160a01b0316836001600160a01b03167fddf252ad1be2c89b69c2b068fc378daa952ba7f163c4a11628f55a4df523b3ef8360405161099e91815260200190565b60405180910390a3505050565b5f6020808352835180828501525f5b818110156109d6578581018301518582016040015282016109ba565b505f604082860101526040601f19601f8301168501019250505092915050565b80356001600160a01b0381168114610a0c575f80fd5b919050565b5f8060408385031215610a22575f80fd5b610a2b836109f6565b946020939093013593505050565b5f805f60608486031215610a4b575f80fd5b610a54846109f6565b9250610a62602085016109f6565b9150604084013590509250925092565b5f60208284031215610a82575f80fd5b5035919050565b5f60208284031215610a99575f80fd5b610aa2826109f6565b9392505050565b5f8060408385031215610aba575f80fd5b610ac3836109f6565b9150610ad1602084016109f6565b90509250929050565b600181811c90821680610aee57607f821691505b602082108103610b0c57634e487b7160e01b5f52602260045260245ffd5b50919050565b634e487b7160e01b5f52601160045260245ffd5b8181038181111561036a5761036a610b12565b8082018082111561036a5761036a610b1256fea26469706673582212207d28d74bb0c5f0f83e5ef87fe1c54000a9ec6595711738a05da3ae5c88758b2f64736f6c63430008140033a26469706673582212207274406f8f5d313f4d540b35dae6167d332f5afd8d66b6417639e429bd7e6f1664736f6c63430008140033","linkReferences":{}},"methodIdentifiers":{"burnFromAsset(bytes,address,uint256)":"d14444c6","computeAssetKey(bytes)":"be457ec7","computeSalt(bytes)":"e9b12303","decimalsByAssetKey(bytes32)":"cbba7052","getTokenAddress(bytes)":"aa3801d8","mintForAsset(bytes,uint8,address,uint256)":"086302c2","minter()":"07546172","predictTokenAddress(bytes,uint8)":"c97c32c4","tokenByAssetKey(bytes32)":"397b0571"},"id":0}